:100000005CC000007FC000007DC000007BC000001D
:1000100079C0000077C0000075C0000073C0000008
:1000200071C000006FC000006DC000006BC0000018
:1000300069C0000067C0000065C0000063C0000028
:10004000B2C000005FC000006FC300009FC300008B
:1000500059C0000057C0000055C0000053C0000048
:1000600051C000004FC00000000000080002010065
:100070000003040700000000000000000102040863
:100080001020408001020408102001020408102002
:10009000040404040404040402020202020203032E
:1000A0000303030300000000250028002B000000CC
:1000B0000000240027002A00F40311241FBECFEF04
:1000C000D8E0DEBFCDBF11E0A0E0B1E0EEEFFAE096
:1000D00002C005900D92A832B107D9F711E0A8E24D
:1000E000B1E001C01D92A23DB107E1F710E0CAEBFB
:1000F000D0E003C02297FE01FCD4C83BD107D1F762
:10010000B7D3FBC47DCF61E0809100015FD126E0D1
:1001100040E855E260E070E085E391E0A5C20F930E
:100120001F93CF93DF9380912A010AD190932901E5
:100130008093280100E011E061E0F80180817FD127
:10014000C0E1D7E26091280170912901CE0186D4E7
:10015000882777FD8095982F93D063E071E085E341
:1001600091E0CED360912801709129014AE050E0DE
:1001700085E391E06BD465E171E085E391E0C0D364
:1001800060E0F80180815BD16091280170912901C4
:10019000CE0164D4882777FD8095982FDF91CF9189
:1001A0001F910F916DC01F920F920FB60F921124E5
:1001B0002F933F938F939F93AF93BF9380912D0184
:1001C00090912E01A0912F01B091300130912C011E
:1001D00023E0230F2D3720F40196A11DB11D05C08A
:1001E00026E8230F0296A11DB11D20932C018093B8
:1001F0002D0190932E01A0932F01B0933001809197
:10020000310190913201A0913301B09134010196F6
:10021000A11DB11D8093310190933201A093330150
:10022000B0933401BF91AF919F918F913F912F91E6
:100230000F900FBE0F901F9018953FB7F8948091C4
:10024000310190913201A0913301B091340126B572
:10025000A89B05C02F3F19F00196A11DB11D3FBFFE
:100260006627782F892F9A2F620F711D811D911D8E
:1002700042E0660F771F881F991F4A95D1F70895AE
:10028000CF92DF92EF92FF92CF93DF936B017C01CD
:10029000D4DFEB01C114D104E104F10479F0DDD322
:1002A000CCDF6C1B7D0B683E7340A0F381E0C81A65
:1002B000D108E108F108C851DC4FECCFDF91CF91B4
:1002C000FF90EF90DF90CF900895789484B582608E
:1002D00084BD84B5816084BD85B5826085BD85B5EA
:1002E000816085BDEEE6F0E0808181608083E1E899
:1002F000F0E01082808182608083808181608083D1
:10030000E0E8F0E0808181608083E1EBF0E08081D3
:1003100084608083E0EBF0E0808181608083EAE7A5
:10032000F0E080818460808380818260808380812E
:10033000816080838081806880831092C1000895ED
:100340008E3008F08E5087702091020190E4299F32
:1003500090011124822B80937C0080917A0080642C
:1003600080937A0080917A0086FDFCCF809178009E
:100370002091790090E0922B0895833081F028F449
:10038000813099F08230A1F008958730A9F088304B
:10039000B9F08430D1F4809180008F7D03C08091CA
:1003A00080008F7780938000089584B58F7702C096
:1003B00084B58F7D84BD08958091B0008F7703C090
:1003C0008091B0008F7D8093B0000895CF93DF932C
:1003D00090E0FC01E458FF4F2491FC01E057FF4FEF
:1003E0008491882349F190E0880F991FFC01E25520
:1003F000FF4FA591B4918C559F4FFC01C591D491AD
:100400009FB7611108C0F8948C91209582238C933A
:10041000888182230AC0623051F4F8948C91322F83
:10042000309583238C938881822B888304C0F89431
:100430008C91822B8C939FBFDF91CF9108950F9366
:100440001F93CF93DF931F92CDB7DEB7282F30E0F5
:10045000F901E859FF4F8491F901E458FF4F1491D5
:10046000F901E057FF4F04910023C1F0882319F0F0
:10047000698383DF6981E02FF0E0EE0FFF1FEC5509
:10048000FF4FA591B4919FB7F8948C91611103C06F
:100490001095812301C0812B8C939FBF0F90DF911A
:1004A000CF911F910F910895FC01818D228D90E0D5
:1004B000805C9F4F821B91098F7399270895FC01DF
:1004C000918D828D981731F0828DE80FF11D858D09
:1004D00090E008958FEF9FEF0895FC01918D828D3C
:1004E000981761F0828DDF01A80FB11D5D968C9188
:1004F000928D9F5F9F73928F90E008958FEF9FEF93
:1005000008958BEE93E0892B41F080E090E0892BF9
:1005100021F061D181110C9400000895FC01848DBB
:10052000DF01A80FB11DA35ABF4F2C91848D90E01D
:1005300001968F739927848FA689B7892C93A089F8
:10054000B1898C9180648C93938D848D981306C0AF
:100550000288F389E02D80818F7D80830895CF9379
:10056000DF93EC01888D8823C1F0EA89FB898081C3
:1005700085FD05C0A889B9898C9186FD0EC00FB68E
:1005800007FCF5CF808185FFF2CFA889B9898C91CE
:1005900085FFEDCFCE01C2DFE8CFDF91CF91089587
:1005A000CF92DF92FF920F931F93CF93DF931F920F
:1005B000CDB7DEB76C0181E0D60158968C93589781
:1005C0005B969C915B975C968C915C97981307C0A7
:1005D0005096ED91FC915197808185FD2DC0F601DB
:1005E000038D10E00F5F1F4F0F731127F02EF601E0
:1005F000848DF81210C00FB607FCF9CFD6015096C3
:10060000ED91FC915197808185FFF1CFC6016983FF
:1006100085DF6981ECCF838DE80FF11DE35AFF4F31
:100620006083D6015B960C935B975296ED91FC919B
:100630005397808180620CC0D6015696ED91FC9153
:10064000579760835096ED91FC915197808180641B
:10065000808381E090E00F90DF91CF911F910F9107
:10066000FF90DF90CF900895BF92CF92DF92EF92EC
:10067000FF92CF93DF93EC016A017B01B22EE889F0
:10068000F98982E08083411581EE58076105710583
:1006900099F060E079E08DE390E0A7019601F1D157
:1006A00021503109410951095695479537952795AC
:1006B000211580E1380790F0E889F989108260E817
:1006C00074E88EE190E0A7019601DBD12150310959
:1006D000410951095695479537952795EC85FD8534
:1006E0003083EE85FF852083188EEC89FD89B082EA
:1006F000EA89FB89808180618083EA89FB89808126
:1007000088608083EA89FB89808180688083EA89A8
:10071000FB8980818F7D8083DF91CF91FF90EF9067
:10072000DF90CF90BF9008951F920F920FB60F9257
:1007300011242F938F939F93EF93FF93E0914501A3
:10074000F09146018081E0914B01F0914C0182FDD6
:1007500012C0908180914E018F5F8F7320914F0165
:10076000821751F0E0914E01F0E0EB5CFE4F958F67
:1007700080934E0101C08081FF91EF919F918F91F5
:100780002F910F900FBE0F901F9018951F920F92F0
:100790000FB60F9211242F933F934F935F936F9354
:1007A0007F938F939F93AF93BF93EF93FF9385E3D3
:1007B00091E0B4DEFF91EF91BF91AF919F918F9146
:1007C0007F916F915F914F913F912F910F900FBE4D
:1007D0000F901F90189585E391E066DE21E0892B4C
:1007E00009F420E0822F0895109238011092370109
:1007F00088EE93E0A0E0B0E08093390190933A0155
:10080000A0933B01B0933C018BE191E090933601C2
:100810008093350185EC90E09093420180934101F3
:1008200084EC90E0909344018093430180EC90E04D
:10083000909346018093450181EC90E090934801AC
:100840008093470182EC90E090934A0180934901A4
:1008500086EC90E090934C0180934B0110924E01F6
:1008600010924F0110925001109251010895089575
:100870002CDDFDDF48DCC1E8D2E051DC2097E9F354
:1008800040DEFBCFCF92DF92EF92FF920F931F9348
:10089000CF93DF936C017A01EB01E60EF71E00E0C7
:1008A00010E0CE15DF0561F06991D601ED91FC9164
:1008B0000190F081E02DC6010995080F191FF1CFB5
:1008C000C801DF91CF911F910F91FF90EF90DF90C2
:1008D000CF9008956115710581F0DB010D90002026
:1008E000E9F7AD0141505109461B570BDC01ED9171
:1008F000FC910280F381E02D099480E090E008955E
:10090000E9CFDC01ED91FC910190F081E02D09949B
:100910008F929F92AF92BF92CF92DF92EF92FF920F
:100920000F931F93CF93DF93CDB7DEB7A1970FB689
:10093000F894DEBF0FBECDBF7C01C42EE52FCB01E6
:10094000D22E19A221E02D1510F02AE0D22E8E0110
:100950000F5D1F4F8D2C912CA12CB12C6C2D7E2F57
:10096000A50194018ED08C2DD29E801911240150A6
:1009700011098A3014F4805D01C0895CF80180831C
:10098000211531054105510521F0C22EE32FCA0181
:10099000E5CFB801C7019EDFA1960FB6F894DEBF80
:1009A0000FBECDBFDF91CF911F910F91FF90EF90C0
:1009B000DF90CF90BF90AF909F908F900895CF928F
:1009C000DF92EF92FF920F931F93CF93DF93EC018F
:1009D0006A017B012115310579F4E881F9810190E3
:1009E000F081E02D642FDF91CF911F910F91FF9047
:1009F000EF90DF90CF9009942A303105D9F477FF3A
:100A000018C06DE27EDF8C0144275527BA014C19CE
:100A10005D096E097F092AE0CE017ADF800F911F00
:100A2000DF91CF911F910F91FF90EF90DF90CF90CA
:100A300008952AE0B701A601CE01DF91CF911F9161
:100A40000F91FF90EF90DF90CF9062CF9A01AB01B2
:100A5000662757FD6095762FB2CF089597FB072E36
:100A600016F4009406D077FD08D02DD007FC05D0F1
:100A70003EF4909581959F4F0895709561957F4FB5
:100A80000895A1E21A2EAA1BBB1BFD010DC0AA1FCF
:100A9000BB1FEE1FFF1FA217B307E407F50720F0E7
:100AA000A21BB30BE40BF50B661F771F881F991F62
:100AB0001A9469F760957095809590959B01AC01AB
:100AC000BD01CF010895AA1BBB1B51E107C0AA1F9E
:100AD000BB1FA617B70710F0A61BB70B881F991FDF
:100AE0005A95A9F780959095BC01CD010895EE0F18
:0E0AF000FF1F0590F491E02D0994F894FFCFBC
:100AFE000D00014C6967687420696E74656E7369C8
:100B0E0074793A20000A0000000000D0024204541A
:080B1E00026D025F02AF02004C
:00000001FF
